:020000001028C6
:10000800FE00030EF0000408F1000A08F200831253
:1000180003137F08F30030284128831603130F16B3
:100028008F160F1706309F00850151308312031376
:100038008500831603138117860151308312031339
:10004800860083160313811281110115811401148E
:100058008B168B172E2810280B1D3328342836288A
:100068000B1136287308FF0072088A007108840093
:0E007800700E8300FE0E7E0E0900830111281B
:02400E0050EF71
:00000001FF
