:020000001028C6
:10000800FE00030EF1000408F2000A08F300831250
:1000180003137F08F40030284928831603130F16AA
:100028008F160F1706309F00850151308312031376
:100038008500831603138117860151308312031339
:10004800860083160313811281110115811401148E
:100058008B168B172E2810280B1D332834283E2882
:100068000B110130F000700885070130F0007008AE
:1000780086073E287408FF0073088A007208840007
:0E008800710E8300FE0E7E0E0900830111280A
:02400E0050EF71
:00000001FF
