:020000040000FA
:020000000428D2
:040002000034003492
:08000800831603138F160F1776
:1000100083120313850185090630831603139F009D
:10002000003083160313850083120313A0010130EF
:100030008316031386008312031306181D28061C5B
:100040001F28A00A200885001D285220A417241765
:10005000200885002528A01F33282008A300F03998
:10006000F03A031D25282508A2000F30220521069D
:10007000031D2528A20E0F30A2052208820725287D
:1000800000000000000000000000000000004F28F9
:1000900050282528512825282528252825282528A1
:1000A00025282528061C52280618542803108030BD
:1000B000A0008F30831603138600831203130608F3
:1000C0001E39A10000000000000000000000000038
:1000D000000027308400000824068030031D7228A9
:1000E0008000A6030006031D7E28840A00088403FE
:1000F0008000840A8030800084038728000000008C
:100100000000000000000000000000000000840A61
:10011000000083160313803086008312031300004F
:0C012000A00C0618A017031C6B28080098
:02400E00F83F79
:00000001FF
