:020000040000FA
:040000001420282878
:040004000034003490
:080008000528831203130A20EE
:100010000F200900A000030E8301A1000800210E9B
:100020008300A00E200E0800831603130F168F16F0
:100030000F1706309F0000308500013086008B13BB
:10004000831203138501A201A301A401A5010800E5
:10005000831203132508850006182828A20AA40184
:100060000A30A300A303031971280310A40C061C73
:100070003A28A41700000000000000000000000063
:100080000000000000000000000000000000000070
:100090000000000000000000000000000000000060
:1000A0000000000000000000000000000000000050
:1000B0000000000000000000000000000000000040
:1000C0000000000000000000000000000000000030
:1000D0000000000000000000000000000000000020
:0C00E00032282408A5002508850073289C
:02400E00F83F79
:00000001FF
