:020000001028C6
:10000800FE00030EF4000408F5000A08F600831247
:1000180003137F08F700742E452E8312031341083B
:10002800C7004208C8004308C9000310480D490D1D
:10003800CA004A08CD004408C7004508C800460859
:10004800C9000310480D490DCA004A08CC004D08E4
:10005800031D2F2840284C084D0203183428352842
:1000680048284D03FF3A4C07C70019304702031CC4
:100078003E283F28482840284408C1004508C200B7
:100088004608C300522952294C08031D4C285C28F5
:100098004D084C020318512852285D284C03FF3A9A
:1000A8004D07C70019304702031C5B285C285D28F0
:1000B80052290630C7004708CB00C31F64286528AB
:1000C8006628CB17C61F69286A286B284B17C217E2
:1000D800FF30C105FF30C2050030C305C517FF302A
:1000E800C405FF30C5050030C6054C084D0203188D
:1000F8007E287F28B028802801300310C40DC50D44
:10010800C60DFF3E031D81280130CC024C084D0668
:1001180003198F289028A8280130CB024B080739EB
:10012800031D972898288028A828A828A8280130DF
:100138000310C30CC20CC10CFF3E031D9C280130E8
:10014800C7004708CD07A8284D084C06031DAD2851
:10015800AE289B28E728E7284D084C020318B52845
:10016800B628E728B72801300310C10DC20DC30D0A
:10017800FF3E031DB8280130CD024C084D06031977
:10018800C628C728DF280130CB024B080739031DD2
:10019800CE28CF28B728DF28DF28DF280130031032
:1001A800C60CC50CC40CFF3E031DD3280130C70084
:1001B8004708CC07DF284D084C06031DE428E5282E
:1001C800D228E728E728CB1FEA28EB28FC28FF30AD
:1001D800C106FF30C206FF30C3060130C107003038
:1001E80003180130C207003003180130C307FC2888
:1001F8004B1FFF2800291129FF30C406FF30C50610
:10020800FF30C6060130C407003003180130C507A7
:10021800003003180130C6071129CB014108C40773
:10022800420803110318420A03191B29C50743088A
:1002380003110318430A03192229C607C61F2529D3
:1002480026293A29FF30C406FF30C506FF30C60606
:100258000130C407003003180130C5070030031807
:100268000130C607CB010314CB0D3A294408A0007E
:100278004508A1004608A2004D08C7004708A3008A
:100288004B08C8004808A400A723831203132008BA
:10029800C1002108C2002208C300522908008312A5
:1002A80003134608CC004708CD004808CE000310C9
:1002B8004D0D4E0DCF004F08D000D008031D652905
:1002C80066296E290030C6000030C7000030C8001B
:1002D8003C2A3C2A4908CC004A08CD004B08CE00ED
:1002E80003104D0D4E0DCF004F08D500D508031D46
:1002F8007E297F2987290030C6000030C7000030DA
:10030800C8003C2A3C2A55087B3ECC004C08D00744
:100318004608CC004708CD004808CE00103003102E
:10032800CE0CCD0CCC0CFF3E031D93294C08CF00FE
:100338004F08D5004908CC004A08CD004B08CE002C
:1003480010300310CE0CCD0CCC0CFF3E031DA5299C
:100358004C08CF004F08D5068030CC004C08D50596
:10036800C717CA17FF30C905FF30CA050030CB05CB
:100378000030D1000030D2000030D3000730CC006C
:100388004C08D400C729461CCA29CB29DC294908AE
:10039800D1074A08031103184A0A0319D429D207B6
:1003A8004B08031103184B0A0319DB29D307DC296F
:1003B80001300310C80CC70CC60CFF3E031DDD2915
:1003C80001300310C90DCA0DCB0DFF3E031DE529F1
:1003D8000130D402031DF129F229C729F329093074
:1003E800CC004C08D400F829461CFB29FC290D2A0E
:1003F8004908D1074A08031103184A0A0319052AAC
:10040800D2074B08031103184B0A03190C2AD30708
:100418000D2A01300310C80CC70CC60CFF3E031D83
:100428000E2A01300310D30CD20CD10CFF3E031D51
:10043800162A0130D402031D222A232AF829242A45
:100448005108A0005208A1005308A2005008CC008F
:100458004C08A3005508CD004D08A400A72383121B
:1004680003132008C6002108C7002208C8003C2A38
:100478000800831203133908BC003A08BD003B0882
:10048800BE0003103D0D3E0DBF003F08C400C40868
:10049800031D4F2A502A582A0030B6000030B700F2
:1004A8000030B800002B002B3608BC003708BD0010
:1004B8003808BE0003103D0D3E0DBF003F08C500C3
:1004C800C508031D682A692A712A0030B600003061
:1004D800B7000030B800002B002B0030C1000030FE
:1004E800C2000030C30089304507BC003C08C40284
:1004F8003908BC003A08BD003B08BE0010300310A4
:10050800BE0CBD0CBC0CFF3E031D832A3C08BF007B
:100518003F08C5003608BC003708BD003808BE00D3
:1005280010300310BE0CBD0CBC0CFF3E031D952AF9
:100538003C08BF003F08C5068030BC003C08C50524
:10054800BA17FF30B905FF30BA050030BB05B71739
:10055800FF30B605FF30B7050030B8051830BC00CD
:100568003C08C000B72A01300310C10DC20DC30DED
:10057800FF3E031DB82A38083B02031DC92A370865
:100588003A02031DC92A36083902031CCC2ACD2A8F
:10059800D92A3608B9023708031C370FBA023808B7
:1005A800031C380ABB024114D92A01300310B90DC3
:1005B800BA0DBB0DFF3E031DDA2A0130C002031D30
:1005C800E62AE72AB72AE82A4108A0004208A1003B
:1005D8004308A2004408BC003C08A3004508BD002D
:1005E8003D08A400A723831203132008B60021089E
:1005F800B7002208B800002B08008312031328084C
:10060800AC002908AD002A08AE0003102D0D2E0DF0
:10061800AF002F08B500B508031D132B142B1E2B94
:100628000030AB000030AA000030A9000030A8005C
:10063800A62BA62B2808AC002908AD002A08AE0076
:1006480017300310AE0CAD0CAC0CFF3E031D252B70
:100658002C08AF002F08B000A917FF30A805FF30FD
:10066800A9050030AA052808B1002908B2002A08FF
:10067800B300B4018E30B502B51F432B442B692B50
:100688003508803A8F3E03184A2B4B2B562B0030E7
:10069800AB000030AA000030A9000030A800A62B4B
:1006A800A62B562B01300310B40CB30CB20CB10CB2
:1006B800FF3E031D572B0130AC002C08B507031D66
:1006C800662B672B562B8D2B8D2B18303502031C70
:1006D8006E2B6F2B862B0030AB000030AA00003049
:1006E800A9000030A800A62BA62B862B0130AC0051
:1006F8000310B10DB20DB30DB40DAC0B7C2B013052
:10070800B502862BB508031D8A2B8B2B7A2B8D2BD4
:100718008D2B3008031D912B9D2BB109B209B3090C
:10072800B409B10A0319B20A0319B30A0319B40ABE
:100738009D2B3408AB003308AA003208A900310801
:10074800A800A62B0800831203132308031DAD2B52
:10075800B52B220821042004031DB32BB42BCB2B6B
:10076800B52B0030A0000030A1000030A200232CDF
:10077800232CCB2B0130A5002508A307013003103B
:10078800A20CA10CA00CFF3E031DC32BCB2BFE30EB
:100798002205031DD02BD12BBE2BE92BE92B0130D1
:1007A800A5002508A3070130A00700300318013071
:1007B800A107003003180130A20701300310A20C72
:1007C800A10CA00CFF3E031DE22BFF302205031DE8
:1007D800EE2BEF2BD32BFC2BFC2B0130A30201308B
:1007E8000310A00DA10DA20DFF3E031DF42BFC2B41
:1007F800A11FFF2B002CF12B2318032C042C0A2CEF
:10080800FF30A0057F30A105FF30A2050310A30C1F
:100818002308A500A601A70110300310A50DA60DF9
:10082800A70DFF3E031D112C2508A0042608A104CE
:100838002708A2042408031D222C232CA217080031
:10084800831203136408E601E6076308E501E50778
:100858005D08B9005E08BA005F08BB006008B60012
:100868006108B7006208B8003D22831203133608F6
:10087800C9003708CA003808CB006308013EB60033
:1008880064080318013E003EB7005D268312031377
:100898003608C6003708C7003808C8005321831235
:1008A80003134608D7004708D8004808D9009724FA
:1008B800831203135708A8005808A9005908AA006A
:1008C8000123831203132908F901F9072808F801FD
:1008D800F807831603130F168F160F1706309F009D
:1008E80085015130831203138500FF3083160313EB
:1008F8009200831203136608A101A1076508A001ED
:10090800A007F92583160313860183120313921097
:1009180012109715171512158316031381128B16CB
:100928008B17952C1028831203135708C1005808F9
:10093800C2005908C3005708CE005808CF0059080C
:10094800D0002F25831203134E08B6004F08B700B6
:100958005008B8008826831203133608C4003708E5
:10096800C5003808C6001120831203134108DA00B5
:100978004208DB004308DC005A08C1005B08C200DB
:100988005C08C3005708C4005808C5005908C600C9
:100998001120831203134108D7004208D8004308E6
:1009A800D9005708CE005808CF005908D0002F2585
:1009B800831203134E08D7004F08D8005008D900F7
:1009C800E52C080083120313C0018E30BD003D08DA
:1009D800BF00BC1FF02CF12C0F2DB909BA09BB09B7
:1009E800BC09B90A0319BA0A0319BB0A0319BC0AD4
:1009F800C0010314C00D0F2D0F2D01300310BC0CC6
:100A0800BB0CBA0CB90CFF3E031D022D0130BD0012
:100A18003D08BF070F2DFF303C05031D142D152D74
:100A2800012D162D3908A0003A08A1003B08A200A4
:100A38003F08BD003D08A3004008BE003E08A400D2
:100A4800A723831203132008B9002108BA0022083B
:100A5800BB002E2D0800831203134E08A0004F0878
:100A6800A1005008A2005530D1005108A3007625F6
:100A780083120313D61F412D422D4A2D0030CE007C
:100A88000030CF000030D000752D752D0030560293
:100A9800153003195502031C522D532D542D752D55
:100AA8004E08A8004F08A9005008AA000123831285
:100AB80003132B08BC002A08BB002908BA00280821
:100AC800B900E624831203133908D2003A08D30088
:100AD8003B08D4005208CE005308CF005408D00079
:100AE800752D080083120313220821042004031D16
:100AF8007E2D7F2D892D23088400003083138000EC
:100B0800840A00308000BB2DBB2D22087F39A40049
:100B1800A5010130FF000310A40DA50DFF0B8F2DBB
:100B280023088400240883138000840A2508800091
:100B3800210D210D0139A400A501230884002408F2
:100B48008004840A250880042308840082308007F2
:100B5800840F00080318000AFF00FF307F07800099
:100B68008403220880393F38A200A113BB2D080056
:100B7800831203136608F3006508F20004300310BB
:100B8800F30CF20CFF3E031DC32D7208F00073082E
:100B9800F10020267908831203136602031DD62D5F
:100BA800780865020318D92DDA2DE92D6509F200B8
:100BB8006609F300F20A0319F30A63087207E500ED
:100BC80064080318640A7307E6007809F2007909D3
:100BD800F300F20A0319F30A65087207E5006608CC
:100BE8000318660A7307E600080083120313201827
:100BF800FE2D022E831203131716052E83120313DC
:100C0800171201300310A10CA00CFF3E031D062E85
:100C180020180F2E132E831203139716162E8312E5
:100C28000313971201300310A10CA00CFF3E031D03
:100C3800172E2008950008007018232E272E8312DF
:100C4800031317162A2E83120313171201300310E9
:100C5800F10CF00CFF3E031D2B2E7018342E382E8D
:100C68008312031397163B2E831203139712013036
:100C78000310F10CF00CFF3E031D3C2E700895008C
:100C88000800FA01FB019626DD009726DE0098266B
:100C9800DF009926E0009A26E1009B26E2009C26C8
:100CA800E3009D26E4009E26FC009F26FD008301AC
:100CB800242C831203133608A0003708A100A201D0
:100CC8008E30B9003908A300A401A72383120313A7
:100CD8002008B6002108B7002208B800732E0800C3
:100CE8000B1D772E782E7B2E0B11BC257B2E7708BB
:100CF80083120313FF0076088A0075088400740EB7
:100D08008300FE0E7E0E0900831203133808370491
:100D180036040319902E912E942E8030B806942E06
:100D2800952E08000034DC34433497349834463424
:080D3800F0343F34FF340334B2
:02400E0062EF5F
:00000001FF
