:020000040000FA
:040000001E203A285C
:040004000034003490
:080008000528831203131420E4
:100010008B180D288B101920090083120313A50BD0
:100020000A284030A5000A28A000030E8301A10081
:100030000800210E8300A00E200E08008316031373
:1000400000309F0083160313FF30850083160313CF
:1000500001308600831203138B138312031385016F
:1000600083120313A201A301A4014030A5000800DC
:100070000612422883120313A50183120313061AE2
:100080003828061683120313FF30A200A20B49285A
:10009000572883120313FF30A300A30B50284628D0
:1000A000831203130F30A400A40B54284D283D28BD
:0400B00000005828CC
:02400E00EA3F87
:00000001FF
