:020000040000FA
:04000000282061282B
:040004000034003490
:080008000528831203131E20DA
:100010008B180E280C1B16282320090083120313AB
:10002000A50B0C284030A5008B100C28831203135D
:100030001E0883120313A5000C130C28A000030E46
:100040008301A1000800210E8300A00E200E0800ED
:100050008316031300309F0083160313FF308500BF
:100060008316031301308600831603130C178312C3
:1000700003130B120B178B170C1383160313C030CB
:100080008100831203138501860183120313A201E9
:10009000A301A4014030A500A501A60126148312E6
:1000A000031381309F008316031300309F00080064
:1000B00006126128831203131F1583120313A6016E
:1000C0006D28000083120313250883120313860092
:1000D00026185A281F196D28261483120313FF307F
:1000E000A200A20B7428822883120313FF30A300FE
:1000F000A30B7B287128831203130F30A400A40BD9
:0A0100007F2878286128000083287A
:02400E00EA3F87
:00000001FF
