:020000040000FA
:040000001420272879
:040004000034003490
:080008000528831203130A20EE
:100010000F200900A000030E8301A1000800210E9B
:100020008300A00E200E0800831603130F168F16F0
:100030000F1706309F0000308500013086008B13BB
:10004000831203138501A201A301A40108008312F6
:1000500003138509A20A0000000000000000000050
:100060000000000000000000000000000000000090
:100070000000000000000000000000000000000080
:1000800000000000000000000000031D2A28A30A51
:06009000031D2A282728A9
:02400E00EA3F87
:00000001FF
