:020000040000FA
:040000001E20402856
:040004000034003490
:080008000528831203131420E4
:100010008B180D288B101920090083120313A50BD0
:100020000A284030A5000A28A000030E8301A10081
:100030000800210E8300A00E200E08008316031373
:1000400000309F0083160313FF30850083160313CF
:1000500001308600831203138B130B1683160313D0
:10006000C0308100831203138501860183120313BC
:10007000A201A301A4014030A500080006124028F7
:10008000000025088600402883120313061A3E2824
:10009000061683120313FF30A200A20B50285E281D
:1000A00083120313FF30A300A30B57284D2883129C
:1000B00003130F30A400A40B5B285428442800002D
:0200C0005F28B7
:02400E00EA3F87
:00000001FF
