:020000040000FA
:040000002820632829
:040004000034003490
:080008000528831203131E20DA
:100010008B180E280C1B16282320090083120313AB
:10002000A50B14284030A5008B100C288312031355
:100030001E0883120313A6000C130C28A000030E45
:100040008301A1000800210E8300A00E200E0800ED
:100050008316031300309F0083160313FF308500BF
:100060008316031301308600831603130C178312C3
:1000700003130B160B178B170C1383160313C030C7
:100080008100831203138501860183120313A201E9
:10009000A301A4014030A500A601A70127148312E3
:1000A000031381309F008316031300309F00080064
:1000B0000612692886127228831203131F158312F1
:1000C0000313A7017728000083120313251C582867
:1000D000061683120313260883120313FE3C03182B
:1000E0005A28861627185C281F1977282714831288
:1000F0000313FF30A200A20B7E288C288312031367
:100100008030A300A30B85287B28831203130130C2
:0E011000A400A40B89288228632800008D28F3
:02400E00EA3F87
:00000001FF
