:020000001028C6
:10000800FE00030EF0000408F1000A08F200831253
:1000180003137F08F3003A28AA286E30F400003052
:10002800F500831603130F168F160F1706309F005F
:1000380085015130831203138500FF3083160313A3
:100048009200602083160313860183120313921013
:1000580012109715171583160313811281110115B4
:10006800811401148B168B17382810280B1D3D2876
:100078003E2853280B110130F4070318F50A003005
:10008800F50704307502003003197402031C4D286B
:100098004E285128F401F50151288520532873086A
:1000A80083120313FF0072088A0071088400700E1F
:1000B8008300FE0E7E0E09007418632867288312D9
:1000C800031317166A28831203131712013003103B
:1000D800F50CF40CFF3E031D6B287418742878285F
:1000E8008312031397167B28831203139712013088
:1000F8000310F50CF40CFF3E031D7C2874089500D2
:100108000800741888288C288312031317168F2860
:1001180083120313171201300310F50CF40CFF3E81
:10012800031D9028741899289D2883120313971685
:10013800A02883120313971201300310F50CF40C56
:10014800FF3E031DA12874089500080083011128AB
:02400E0050EF71
:00000001FF
