:020000040000FA
:040000003520592826
:040004000034003490
:020008000528C9
:06000A0083120313A100A4
:10001000030E8301A2008C1821288B181428220EAD
:100020008300A10E210E09008312031325181F2837
:1000300006181F280930A300A401251491018B1074
:100040000F2883120313251C3128A30303192D281D
:100050000310A40C0618A417312825102408A000AA
:0A006000A514831203138C100F285F
:06006A00831603130630AB
:100070009F000030850001308600831203130F308B
:1000800097009501831603130B1601138C14A030EF
:100090009200831203131215831203138501A0012A
:1000A000A501A801831203138C108B108B170B175B
:0200B000080046
:0E00B20083120313A51C5928A510A80A831653
:1000C00003138030831203132007831203178D005C
:1000D000831603170C14831203170C0883120313DF
:1000E000950083120313A700A70C3030A7050F302B
:0800F0001705270497005928A9
:02400E00A23FCF
:10420000000001000200030005000600070008008E
:104210000A000B000C000D000F001000110012002E
:10422000140015001600170019001A001B001C00CE
:104230001E001F002000220023002400250027006C
:10424000280029002A002C002D002E002F0031000C
:1042500032003300340036003700380039003B00AC
:104260003C003D003E00400041004200440045004B
:104270004600470049004A004B004C004E004F00EA
:10428000500051005300540055005600580059008A
:104290005A005B005D005E005F0061006200630029
:1042A000640066006700680069006B006C006D00C8
:1042B0006E00700071007200730075007600770068
:1042C00078007A007B007C007D007F008000810008
:1042D0008300840085008600880089008A008B00A6
:1042E0008D008E008F009000920093009400950046
:1042F0009700980099009A009C009D009E00A000E5
:1043000000000000000000000000000000000000AD
:10431000000000000000000000000000000000009D
:1043200000000000000000000000F800FB00FE009C
:1043300000000200050008000A000D001000120035
:10434000150018001A001D0020002200250028007A
:104350002A002D0030003200350038003A003D00C0
:1043600040004200450048004A004D005000520005
:10437000550058005A005D0060006200650068004A
:104380006A006D0070007200750078007A007D0090
:1043900080008200850088008A008D0090009200D5
:1043A00095009800A000A000A000A000A000A00020
:1043B000A000A000A000A000A000A000A000A000FD
:1043C000A000A000A000A000A000A000A000A000ED
:1043D000A000A000A000A000A000A000A000A000DD
:1043E000A000A000A000A000A000A000A000A000CD
:1043F000A000A000A000A000A000A000A000A000BD
:00000001FF
